:02000000632972
:1000060083120313FB01FA01F9018030F800F10CA9
:10001600F00C031C17287408F90775080318750FE8
:10002600FA070318FB0A0310F01F1F287408FA07C3
:1000360075080318750FFB07FB0CFA0CF90CF80C86
:10004600031C0A287B08F3007A08F2007908F100FD
:060056007808F00008002C
:0E005C008312031322088A0021088200080084
:10006A00710DF80DF90D7408F8027508031C750F67
:10007A00F902F00DF10D0F30FC00710DF80DF90DBC
:10008A007408701C4E28F8027508031C750FF902D3
:10009A005328F80775080318750FF907F00DF10DC5
:1000AA00FC0B422870185F287408F80775080318B3
:0800BA00750FF90700000800B2
:0E00C200073083120313FD00FD0B65280800B4
:1000D000831603130711831212150C3097040800BE
:1000E000831203137408003A031D7F287508003A31
:1000F000031D7F28FF30F0007F30F100D8288312E5
:100100000313FD01F901F8017108700403190034AB
:1001100071087506FA00FA1BFD09FB01F51F952809
:10012000F409F509F40A0319F50AF11F9C28F009EE
:10013000F109F00A0319F10A71087504FA00FA1BB3
:10014000B12835207B18C428FD1F0034F009F109BF
:10015000F00A0319F10AF809F909F80A0319F90A6A
:100160000034F51FC028F11BBC287108F900700885
:10017000F800F101F001A428F101F001F00A0034C7
:10018000F109F009FB0AA128F80A0319F90A740811
:100190007802031DA42875087902031DA428F9011B
:1001A000F801F00A0319F10AF11FA4280000FF3436
:0201B000080045
:1001B200831203139F01C0309F042009F0007008CE
:1001C20083169F051F179F1783122A08F000F00D50
:1001D2007010F00D7010F00D701070089F041F1455
:1001E20061201F151F1DF7280000F3281F101E088D
:1001F200F100F00183161E08F0040030F10408003B
:10020200FF3083120313A500FF30A600FF30A700C2
:10021200FF309F01C0309F042009F0007008831650
:0C0222009F051F179F1783121F14080070
:10022E002E208A110A128000840AA10A0319A20A3A
:08023E00F003031D172908005D
:10024600831603131208013EF000F1010318F10AA8
:1002560083122A08F400F50103200630F200700824
:10026600F4007108F500720803193E29F50CF40C28
:10027600F513FF3E37290430F1007408F0007108C9
:1002860003194929F00D7010FF3E432930307005DF
:10029600F3007408F0007508F100F10CF00CF1138E
:1002A600F10CF00CF113700895000F3097057308E8
:0402B60097040800A1
:0C02BA008312031395011712971208001D
:1002C600AC21831603138601831286011214921041
:1002D600F930831692005D2101216820AA01D920F8
:1002E60070088312A3007108A4000430F4000030E3
:1002F600F50070207008A8007108A9007008AA000F
:100306002321061086140B30FB002630FC005D30DE
:10031600FD00FD0B8C29FC0B8C29FB0B8C290000A6
:100326000000061486100B30FB002630FC005D3002
:10033600FD00FD0B9C29FC0B9C29FB0B9C29000056
:0603460000007129A52949
:1003580020308400013083120313F000AB30A10079
:080368000130A200172108007A
:020356000F3462
:02400E004A2F37
:00000001FF
