:02000000D12C01
:10000600103083120313FD00FD0B072800000800C3
:10001600083083120313FC002330FD00FD0B11286A
:06002600FC0B112808008C
:04002C0000000800C8
:100030007B15FB1F22280130F300F201F101F001D2
:08004000FA0DF20CFF3008007C
:1000480083120313EF1B2A2886112B2886156F1B92
:100058002F28061130280615EF1A3428861035285F
:1000680086146F1A392806103A2806144A183E28AA
:1000780006163F280612861616208612EF194628FD
:100088008611472886156F194B2806114C28061526
:10009800EF1850288610512886146F185528061016
:1000A800562806144A185A2806165B280612861679
:1000B800162086124A1C62280B2063280320080099
:0E00C800F201F101F001F801F301003008002F
:0800D600FA1FF21300300800CC
:1000DE00FB14FB1F7928FF30F300F200F100F00053
:0800EE00FA0DF20CFF300800CE
:0E00F6008312031349088A004808820008009C
:0E010400073083120313FD00FD0B8628080050
:10011200831203134A106D08EF0024204A140800CA
:10012200A0017208031DA6287108F2007008F100F0
:10013200F001A0157208031DA6287108F200F10152
:10014200A011201672080319B4282008F302031D17
:10015200031CB8280310F21BBC28F00DF10DF20DA0
:10016200F30BAC28B8280130FC006420BF28023011
:0E017200FC001820BF280430FC006B200800A1
:10018000831203136D08F2007208F100F20A6E0880
:10019000F000EE0A700884000008F0007108840086
:1001A000700880007108840000080319D828C4284A
:0601B0006D08F0000800DC
:1001B60083120313FD01F801700803190034740655
:1001C600FA00FA1BFD09FB01F41FEB28F409F40AF7
:1001D600F01FEF28F009F00A70087404FA00FA1B01
:1001E60013297408F802F00D700DF80D7408F8075D
:1001F600F00D0630FC00700DF80D74087018F8024A
:10020600701CF807F00DFC0BFE28701CF8077B1815
:100216002129FD1F0034F009F00AF809F80A003414
:10022600F41F1E29F01B1B297008F800F0010C2989
:10023600F001F00A0034F009FB0AF428F80A740801
:100246007802031D0C29F801F00AF01F0C29FF346F
:0202560008009E
:1002580083120313FA017308031D7A147708031D28
:10026800FA147A0803197829033A031943297A18E2
:100278004029F61F76297429F21F742976297208F5
:100288008039FA00F21376088039F6137A060319D2
:1002980051297A08031974297629770873020319F2
:1002A8005829031C6C2970297608720203195F29E2
:1002B800031C6C2970297508710203196629031C2F
:1002C8006C29702974087002031978290318702999
:1002D800FA08031976297429FA0803197429762962
:1002E800031408000310080003140315080008008D
:1002F80083120313FB017308031D77080319D3291D
:1003080072087606FA007708F3077E30031C9029F6
:10031800F3020318D6299329F302031CD92972087A
:10032800F8007108FC007008FD00F817F6170310B4
:10033800F201F101F0011830A0007D1CAD2974080C
:10034800F00775080318750FF10776080318760F7C
:10035800F207F20CF10CF00CF80CFC0CFD0C03107D
:10036800A00BA129F21BBD29F80DF00DF10DF20D1E
:10037800F3037B1B701CCF29F81FCF29F00A031940
:10038800F10A0319F20A031DCF29F20CF10CF00C43
:10039800F30A0319D629FA1FF2130030DB290130BA
:1003A8006420DB2902306F20DB290430182000008C
:0203B80008003B
:1003BA00EF29803083120313E000022AC030E000E4
:1003CA00022A9430E000022AD430E000022A803067
:1003DA00E000022A831203136008013A0319DE2996
:1003EA006008023A0319E3296008033A0319E62967
:1003FA006008043A0319E929EC296103F00060084E
:10040A00F0077008E0007008EF0024204A10E301AA
:10041A00630862078400000803191B2A630862073D
:10042A0084000008ED008920E30A0D2A4A14080016
:10043A00831203139F01C0309F042509F00070083E
:10044A0083169F051F179F1783126008F000F00D8F
:10045A007010F00D7010F00D701070089F041F14CA
:10046A0082201F151F1D3B2A0000372A1F101E0855
:10047A00F100F00183161E08F0040030F1040800B0
:10048A00831203137008F8007108F000F101F201F9
:10049A00F301FB01FC019630F300FA01F01F5B2A1D
:1004AA00F809F009F80A0319F00AFA177008F100B6
:0C04BA007808F000F801F2019120080021
:1004C60083120313EB01EC016008E7006108E80002
:1004D6006208E9006308EA006A08FF3A031D7D2AFC
:1004E6006908FF3A031D7D2A6808FF3A031D7D2A25
:1004F6006708FF3A031D872A6408ED002130EE00E5
:10050600C0200330F000602C0130E500E91F962A78
:1005160080306906F0007008E900E50A6408840086
:100526002D308000E40A0030F0006A06031DA52A7B
:1005360070086906031DA52A70086806031DA52A0A
:100546006708003A031DAE2A6408ED002630EE0067
:10055600C020F001602C6A08FF3A031DBC2A690816
:10056600003A031DBC2A6808003A031DBC2A670826
:10057600003A031DC62A6408ED002830EE00C020AC
:100586006508F000602C0030F4000030F500003003
:10059600F6007F30F7006708F0006808F100690888
:1005A600F2006A08F3002C21013003180030F00035
:1005B60070080319F92A6708F0006808F10069084D
:1005C600F2006A08F3000030F4000030F500203035
:1005D600F6008230F7007C217008E7007108E80019
:1005E6007208E9007308EA00EC03C62A0030F4003A
:1005F6000030F5002030F6008230F7006708F00082
:100606006808F1006908F2006A08F3002C2101303D
:10061600031C0030F000700803192C2B6708F0004B
:100626006808F1006908F2006A08F300CD30F400AA
:10063600CC30F5004C30F6007B30F7007C2170089A
:10064600E7007108E8007208E9007308EA00EC0A9E
:10065600F92AFF306705F800FF306805F9007F309A
:100666006905FA0000306A05FB007808F40079088D
:10067600F5007A08F6007B08F700F40DF50DF60D87
:10068600F70D741000306705F00000306805F100C2
:1006960000306905F200FF306A05F3007008E700D4
:1006A6007108E8007208E9007308EA007408670434
:1006B600F00075086804F10076086904F20077080E
:1006C6006A04F3007008E7007108E8007208E900A0
:1006D6007308EA007F306A02F0007008E600013015
:1006E600EA007008F4006708F0006808F10069087D
:1006F600F2006A08F30074080319882BF00DF10D57
:10070600F20DF30D7010FF3E7F2B7008E7007108A5
:10071600E8007208E9007308EA006A08303EF00053
:100726006408840070088000E40A80306C06F000DB
:100736008030013A7002031CA92B8030063AF00083
:1007460080306C067002031CA92BB02B6408840051
:100756002E308000E40A0130EB000630E600660821
:10076600003A03190E2CEA016708F0006808F10048
:100776006908F2006A08F300F00DF10DF20DF30DB1
:100786007010F00DF10DF20DF30D70106708F00703
:1007960068080318680FF10769080318690FF2075C
:1007A6006A0803186A0FF3077008E7007108E80083
:1007B6007208E9007308EA006708F0006808F100AB
:1007C6006908F2006A08F300F00DF10DF20DF30D61
:1007D60070107008E7007108E8007208E9007308F5
:1007E600EA006A08303EF000640884007008800061
:1007F600E40A6B08003A031D0C2CEC036C08003A63
:10080600031D0C2C640884002E308000E40A01309D
:10081600EB00E603B22BFF30640784000008303A91
:10082600031D172CE4030E2CFF3064078400000818
:100836002E3A031D1F2CE4036C08003A03195C2CA6
:100846006408840065308000E40A80306C06F0009D
:100856008030003A70020318382C640884002D306A
:100866008000E40A6C08003CEC006C08E60080306E
:10087600093AF00080306C06700203184E2C0A30DC
:10088600F4006608F000DB203030F00764088400CE
:1008960070088000E40A0A30F4006608F000DB20E5
:1008A6007808F0003030F007640884007008800093
:0C08B600E40A640884008001F0010800DE
:1008C200FF3083120313CB00FF30CC00FF30CD008A
:1008D200FF309F01C0309F042509F0007008831685
:0C08E2009F051F179F1783121F140800AA
:1008EE007B208A110A128000840AC80A0319C90AD9
:0808FE00F003031D772C080034
:100906008316031386120612061086100611861128
:1009160083128612061286110611861006100B2007
:100926000B200B20861406148616162086120B2022
:100936008616162086120B208616162086120B2087
:1009460006108616162086120B208616162086128C
:10095600861086158616162086120B20861106141A
:1009660086161620861206108616162086120B206C
:1009760086161620861206148616162086120B2058
:100986000610861616208612861506158614061477
:0C0996008616162086120B204A1408005A
:1009A2009425831603138701860101308500831283
:1009B20086018701832461240C30EF00242001305A
:1009C200EF002420E0011D2270088312C600710886
:1009D200C70045220A30F4002830F5002030F60026
:1009E2007730F7007C217008D2007108D3007208BA
:1009F200D4007308D5000030F4000030F500483010
:100A0200F6008530F7007C217008CE007108CF0017
:100A12007208D0007308D1007008E0007108E1008C
:100A22007208E2007308E3005630E40063225208C1
:100A3200F4005308F5005408F6005508F700CD30CD
:100A4200F000CC30F1004C30F2007D30F3002C216C
:100A52000130031C0030F00070080319402D0130F2
:100A620087000130E0000330E1003930E200DD218F
:100A72000230E0000130E1005630E200DD21520890
:100A8200F4005308F5005408F6005508F700CD307D
:100A9200F000CC30F1004C30F2007D30F3002C211C
:100AA200013003180030F00070080319682D02307D
:100AB20087000130E0000330E1002C30E200DD214C
:100AC2000230E0000130E1005630E200DD21E32C8B
:020AD200692D8C
:100B280021308400253083120313F0006F30C80091
:080B38000530C9007724080014
:080ADE004E3461344E34003443
:020AE6000F34CB
:040AE8003034003472
:080AEC0049344E344634003455
:100AF400543465346D347034653472346134743410
:0A0B04007534723465342034003477
:100B0E00543465346D3470346534723461347434F5
:0A0B1E00753472346534203400345D
:02400E004A2F37
:00000001FF
