:020000000328D3
:1000060083160313860183128601013086000330AE
:10001600FB008A30FC005530FD00FD0B1028FC0B60
:100026001028FB0B102800000000F20107307202B6
:10003600031833280608F000F00D701070088600CB
:100046000330FB008A30FC005530FD00FD0B2928EB
:10005600FC0B2928FB0B292800000000F20A1928AE
:10006600803086000330FB008A30FC005530FD00EE
:10007600FD0B3B28FC0B3B28FB0B3B28000000003C
:10008600F2010730720203185E280608F000F00C31
:10009600F013700886000330FB008A30FC005530F0
:1000A600FD00FD0B5428FC0B5428FB0B54280000C4
:0A00B6000000F20A442808285F2821
:02400E004A2F37
:00000001FF
